C51 COMPILER V9.52.0.0   NOKIA_5110                                                        09/19/2018 15:03:53 PAGE 1   


C51 COMPILER V9.52.0.0, COMPILATION OF MODULE NOKIA_5110
OBJECT MODULE PLACED IN nokia_5110.OBJ
COMPILER INVOKED BY: H:\KEIL4\C51\BIN\C51.EXE nokia_5110.c BROWSE DEBUG OBJECTEXTEND TABS(2)

line level    source

   1          
   2          
   3          #include "nokia_5110.h"
   4          #include "english_6x8_pixel.h"
   5          #include "write_chinese_string_pixel.h"
   6          #include <intrins.h>
   7          
   8          /*-----------------------------------------------------------------------
   9          LCD_init          : 3310LCD初始化
  10          
  11          编写日期          ：2004-8-10 
  12          最后修改日期      ：2004-8-10 
  13          -----------------------------------------------------------------------*/
  14          
  15          void delay_1us(void)                 //1us延时函数
  16            {
  17   1         unsigned int a,b;                          
  18   1          for(b=18;b>0;b--)                      
  19   1              for(a=6;a>0;a--);
  20   1          _nop_(); 
  21   1        }
  22          
  23            void delay_1ms(void)                 //1ms延时函数
  24            {
  25   1         unsigned int a,b;                          
  26   1          for(b=18;b>0;b--)                      
  27   1              for(a=60;a>0;a--);
  28   1          _nop_(); 
  29   1        }
  30            
  31          void delay_nms(unsigned int n)       //N ms延时函数
  32            {
  33   1         unsigned int i=0;
  34   1         for (i=0;i<n;i++)
  35   1         delay_1ms();
  36   1        }
  37          
  38          
  39          void LCD_init(void)
  40            {
  41   1                  // 产生一个让LCD复位的低电平脉冲
  42   1         LCD_RST = 0;
  43   1          delay_1us();
  44   1      
  45   1         LCD_RST = 1;
  46   1          
  47   1          // 关闭LCD
  48   1         LCD_CE = 0;
  49   1          delay_1us();
  50   1          // 使能LCD
  51   1         LCD_CE = 1;
  52   1          delay_1us();
  53   1      
  54   1          LCD_write_byte(0x21, 0);  // 使用扩展命令设置LCD模式
  55   1          LCD_write_byte(0xc8, 0);  // 设置偏置电压
C51 COMPILER V9.52.0.0   NOKIA_5110                                                        09/19/2018 15:03:53 PAGE 2   

  56   1          LCD_write_byte(0x06, 0);  // 温度校正
  57   1          LCD_write_byte(0x13, 0);  // 1:48
  58   1          LCD_write_byte(0x20, 0);  // 使用基本命令
  59   1          LCD_clear();          // 清屏
  60   1          LCD_write_byte(0x0c, 0);  // 设定显示模式，正常显示
  61   1              
  62   1                 // 关闭LCD
  63   1         LCD_CE = 0;
  64   1        }
  65          
  66          /*-----------------------------------------------------------------------
  67          LCD_clear         : LCD清屏函数
  68          
  69          编写日期          ：2004-8-10 
  70          最后修改日期      ：2004-8-10 
  71          -----------------------------------------------------------------------*/
  72          void LCD_clear(void)
  73            {
  74   1          unsigned int i;
  75   1      
  76   1          LCD_write_byte(0x0c, 0);      
  77   1          LCD_write_byte(0x80, 0);      
  78   1      
  79   1          for (i=0; i<504; i++)
  80   1            LCD_write_byte(0, 1);     
  81   1        }
  82          
  83          /*-----------------------------------------------------------------------
  84          LCD_set_XY        : 设置LCD坐标函数
  85          
  86          输入参数：X       ：0－83
  87                    Y       ：0－5
  88          
  89          编写日期          ：2004-8-10 
  90          最后修改日期      ：2004-8-10 
  91          -----------------------------------------------------------------------*/
  92          void LCD_set_XY(unsigned char X, unsigned char Y)
  93            {
  94   1          LCD_write_byte(0x40 | Y, 0);    // column
  95   1          LCD_write_byte(0x80 | X, 0);            // row
  96   1        }
  97          
  98          /*-----------------------------------------------------------------------
  99          LCD_write_char    : 显示英文字符
 100          
 101          输入参数：c       ：显示的字符；
 102          
 103          编写日期          ：2004-8-10 
 104          最后修改日期      ：2004-8-10 
 105          -----------------------------------------------------------------------*/
 106          void LCD_write_char(unsigned char c)
 107            {
 108   1          unsigned char line;
 109   1      
 110   1          c -= 32;
 111   1      
 112   1          for (line=0; line<6; line++)
 113   1            LCD_write_byte(font6x8[c][line], 1);
 114   1        }
 115          
 116          /*-----------------------------------------------------------------------
 117          LCD_write_english_String  : 英文字符串显示函数
C51 COMPILER V9.52.0.0   NOKIA_5110                                                        09/19/2018 15:03:53 PAGE 3   

 118          
 119          输入参数：*s      ：英文字符串指针；
 120                    X、Y    : 显示字符串的位置,x 0-83 ,y 0-5
 121          
 122          编写日期          ：2004-8-10 
 123          最后修改日期      ：2004-8-10     
 124          -----------------------------------------------------------------------*/
 125          void LCD_write_english_string(unsigned char X,unsigned char Y,char *s)
 126            {
 127   1          LCD_set_XY(X,Y);
 128   1          while (*s) 
 129   1            {
 130   2         LCD_write_char(*s);
 131   2         s++;
 132   2            }
 133   1        }
 134          /*-----------------------------------------------------------------------
 135          LCD_write_chinese_string: 在LCD上显示汉字
 136          
 137          输入参数：X、Y    ：显示汉字的起始X、Y坐标；
 138                    ch_with ：汉字点阵的宽度
 139                    num     ：显示汉字的个数；  
 140                    line    ：汉字点阵数组中的起始行数
 141                    row     ：汉字显示的行间距
 142          编写日期          ：2004-8-11 
 143          最后修改日期      ：2004-8-12 
 144          测试：
 145            LCD_write_chi(0,0,12,7,0,0);
 146            LCD_write_chi(0,2,12,7,0,0);
 147            LCD_write_chi(0,4,12,7,0,0);  
 148          -----------------------------------------------------------------------*/                        
 149          void LCD_write_chinese_string(unsigned char X, unsigned char Y, 
 150                             unsigned char ch_with,unsigned char num,
 151                             unsigned char line,unsigned char row)
 152            {
 153   1          unsigned char i,n;
 154   1          
 155   1          LCD_set_XY(X,Y);                             //设置初始位置
 156   1          
 157   1          for (i=0;i<num;)
 158   1            {
 159   2              for (n=0; n<ch_with*2; n++)              //写一个汉字
 160   2                { 
 161   3                  if (n==ch_with)                      //写汉字的下半部分
 162   3                    {
 163   4                      if (i==0) LCD_set_XY(X,Y+1);
 164   4                      else
 165   4                         LCD_set_XY((X+(ch_with+row)*i),Y+1);
 166   4                    }
 167   3                  LCD_write_byte(write_chinese[line+i][n],1);
 168   3                }
 169   2              i++;
 170   2              LCD_set_XY((X+(ch_with+row)*i),Y);
 171   2            }
 172   1        }
 173            
 174          
 175          
 176          /*-----------------------------------------------------------------------
 177          LCD_draw_map      : 位图绘制函数
 178          
 179          输入参数：X、Y    ：位图绘制的起始X、Y坐标；
C51 COMPILER V9.52.0.0   NOKIA_5110                                                        09/19/2018 15:03:53 PAGE 4   

 180                    *map    ：位图点阵数据；
 181                    Pix_x   ：位图像素（长）
 182                    Pix_y   ：位图像素（宽）
 183          
 184          编写日期          ：2004-8-13
 185          最后修改日期      ：2004-8-13 
 186          -----------------------------------------------------------------------*/
 187          void LCD_draw_bmp_pixel(unsigned char X,unsigned char Y,unsigned char *map,
 188                            unsigned char Pix_x,unsigned char Pix_y)
 189            {
 190   1          unsigned int i,n;
 191   1          unsigned char row;
 192   1          
 193   1          if (Pix_y%8==0) row=Pix_y/8;      //计算位图所占行数
 194   1            else
 195   1              row=Pix_y/8+1;
 196   1          
 197   1          for (n=0;n<row;n++)
 198   1            {
 199   2              LCD_set_XY(X,Y);
 200   2              for(i=0; i<Pix_x; i++)
 201   2                {
 202   3                  LCD_write_byte(map[i+n*Pix_x], 1);
 203   3                }
 204   2              Y++;                         //换行
 205   2            }      
 206   1        }
 207          
 208          /*-----------------------------------------------------------------------
 209          LCD_write_byte    : 使用SPI接口写数据到LCD
 210          
 211          输入参数：data    ：写入的数据；
 212                    command ：写数据/命令选择；
 213          
 214          编写日期          ：2004-8-10 
 215          最后修改日期      ：2004-8-13 
 216          -----------------------------------------------------------------------*/
 217          void LCD_write_byte(unsigned char dat, unsigned char command)
 218            {
 219   1          unsigned char i;
 220   1          //PORTB &= ~LCD_CE ;            // 使能LCD
 221   1          LCD_CE = 0;
 222   1          
 223   1          if (command == 0)
 224   1           // PORTB &= ~LCD_DC ;          // 传送命令
 225   1           LCD_DC = 0;
 226   1          else
 227   1           // PORTB |= LCD_DC ;           // 传送数据
 228   1           LCD_DC = 1;
 229   1          for(i=0;i<8;i++)
 230   1          {
 231   2            if(dat&0x80)
 232   2              SDIN = 1;
 233   2            else
 234   2              SDIN = 0;
 235   2            SCLK = 0;
 236   2            dat = dat << 1;
 237   2            SCLK = 1;
 238   2          }
 239   1         // SPDR = data;      // 传送数据到SPI寄存器
 240   1      
 241   1          //while ((SPSR & 0x80) == 0);         // 等待数据传送完毕
C51 COMPILER V9.52.0.0   NOKIA_5110                                                        09/19/2018 15:03:53 PAGE 5   

 242   1        
 243   1          //PORTB |= LCD_CE ;     // 关闭LCD
 244   1           LCD_CE = 1;
 245   1        }
 246          
 247          


MODULE INFORMATION:   STATIC OVERLAYABLE
   CODE SIZE        =    616    ----
   CONSTANT SIZE    =    816    ----
   XDATA SIZE       =   ----    ----
   PDATA SIZE       =   ----    ----
   DATA SIZE        =   ----      28
   IDATA SIZE       =   ----    ----
   BIT SIZE         =   ----    ----
END OF MODULE INFORMATION.


C51 COMPILATION COMPLETE.  0 WARNING(S),  0 ERROR(S)
